{
  "_format": "hh-sol-artifact-1",
  "contractName": "EventTicketContract",
  "sourceName": "contracts/EventTicket.sol",
  "abi": [
    {
      "inputs": [
        {
          "internalType": "address",
          "name": "_tokenAddress",
          "type": "address"
        }
      ],
      "stateMutability": "nonpayable",
      "type": "constructor"
    },
    {
      "anonymous": false,
      "inputs": [
        {
          "indexed": true,
          "internalType": "address",
          "name": "account",
          "type": "address"
        },
        {
          "indexed": true,
          "internalType": "address",
          "name": "operator",
          "type": "address"
        },
        {
          "indexed": false,
          "internalType": "bool",
          "name": "approved",
          "type": "bool"
        }
      ],
      "name": "ApprovalForAll",
      "type": "event"
    },
    {
      "anonymous": false,
      "inputs": [
        {
          "indexed": true,
          "internalType": "address",
          "name": "seller",
          "type": "address"
        },
        {
          "indexed": false,
          "internalType": "uint256",
          "name": "amount",
          "type": "uint256"
        }
      ],
      "name": "BalanceWithdrawn",
      "type": "event"
    },
    {
      "anonymous": false,
      "inputs": [
        {
          "indexed": true,
          "internalType": "address",
          "name": "buyer",
          "type": "address"
        },
        {
          "indexed": false,
          "internalType": "uint256",
          "name": "ticketId",
          "type": "uint256"
        }
      ],
      "name": "TicketPurchased",
      "type": "event"
    },
    {
      "anonymous": false,
      "inputs": [
        {
          "indexed": true,
          "internalType": "address",
          "name": "creator",
          "type": "address"
        },
        {
          "indexed": false,
          "internalType": "uint256[]",
          "name": "tokenIds",
          "type": "uint256[]"
        }
      ],
      "name": "TicketsBatchCreated",
      "type": "event"
    },
    {
      "anonymous": false,
      "inputs": [
        {
          "indexed": true,
          "internalType": "address",
          "name": "operator",
          "type": "address"
        },
        {
          "indexed": true,
          "internalType": "address",
          "name": "from",
          "type": "address"
        },
        {
          "indexed": true,
          "internalType": "address",
          "name": "to",
          "type": "address"
        },
        {
          "indexed": false,
          "internalType": "uint256[]",
          "name": "ids",
          "type": "uint256[]"
        },
        {
          "indexed": false,
          "internalType": "uint256[]",
          "name": "values",
          "type": "uint256[]"
        }
      ],
      "name": "TransferBatch",
      "type": "event"
    },
    {
      "anonymous": false,
      "inputs": [
        {
          "indexed": true,
          "internalType": "address",
          "name": "operator",
          "type": "address"
        },
        {
          "indexed": true,
          "internalType": "address",
          "name": "from",
          "type": "address"
        },
        {
          "indexed": true,
          "internalType": "address",
          "name": "to",
          "type": "address"
        },
        {
          "indexed": false,
          "internalType": "uint256",
          "name": "id",
          "type": "uint256"
        },
        {
          "indexed": false,
          "internalType": "uint256",
          "name": "value",
          "type": "uint256"
        }
      ],
      "name": "TransferSingle",
      "type": "event"
    },
    {
      "anonymous": false,
      "inputs": [
        {
          "indexed": false,
          "internalType": "string",
          "name": "value",
          "type": "string"
        },
        {
          "indexed": true,
          "internalType": "uint256",
          "name": "id",
          "type": "uint256"
        }
      ],
      "name": "URI",
      "type": "event"
    },
    {
      "inputs": [
        {
          "internalType": "address",
          "name": "account",
          "type": "address"
        },
        {
          "internalType": "uint256",
          "name": "id",
          "type": "uint256"
        }
      ],
      "name": "balanceOf",
      "outputs": [
        {
          "internalType": "uint256",
          "name": "",
          "type": "uint256"
        }
      ],
      "stateMutability": "view",
      "type": "function"
    },
    {
      "inputs": [
        {
          "internalType": "address[]",
          "name": "accounts",
          "type": "address[]"
        },
        {
          "internalType": "uint256[]",
          "name": "ids",
          "type": "uint256[]"
        }
      ],
      "name": "balanceOfBatch",
      "outputs": [
        {
          "internalType": "uint256[]",
          "name": "",
          "type": "uint256[]"
        }
      ],
      "stateMutability": "view",
      "type": "function"
    },
    {
      "inputs": [
        {
          "internalType": "uint256",
          "name": "_ticketId",
          "type": "uint256"
        }
      ],
      "name": "cancelTicket",
      "outputs": [],
      "stateMutability": "nonpayable",
      "type": "function"
    },
    {
      "inputs": [
        {
          "internalType": "string[]",
          "name": "_ticketTitles",
          "type": "string[]"
        },
        {
          "internalType": "string[]",
          "name": "_eventDetails",
          "type": "string[]"
        },
        {
          "internalType": "uint256[]",
          "name": "_ticketQuantities",
          "type": "uint256[]"
        },
        {
          "internalType": "uint256[]",
          "name": "_prices",
          "type": "uint256[]"
        },
        {
          "internalType": "uint256[]",
          "name": "_dates",
          "type": "uint256[]"
        }
      ],
      "name": "createTicket",
      "outputs": [],
      "stateMutability": "nonpayable",
      "type": "function"
    },
    {
      "inputs": [],
      "name": "getNftsDetails",
      "outputs": [
        {
          "components": [
            {
              "internalType": "string",
              "name": "ticketTitle",
              "type": "string"
            },
            {
              "internalType": "string",
              "name": "eventDetails",
              "type": "string"
            },
            {
              "internalType": "uint256",
              "name": "price",
              "type": "uint256"
            },
            {
              "internalType": "uint256",
              "name": "date",
              "type": "uint256"
            },
            {
              "internalType": "uint256",
              "name": "ticketID",
              "type": "uint256"
            },
            {
              "internalType": "bool",
              "name": "soldOut",
              "type": "bool"
            }
          ],
          "internalType": "struct EventTicketContract.Ticket[]",
          "name": "",
          "type": "tuple[]"
        }
      ],
      "stateMutability": "view",
      "type": "function"
    },
    {
      "inputs": [
        {
          "internalType": "address",
          "name": "account",
          "type": "address"
        },
        {
          "internalType": "address",
          "name": "operator",
          "type": "address"
        }
      ],
      "name": "isApprovedForAll",
      "outputs": [
        {
          "internalType": "bool",
          "name": "",
          "type": "bool"
        }
      ],
      "stateMutability": "view",
      "type": "function"
    },
    {
      "inputs": [
        {
          "internalType": "address",
          "name": "",
          "type": "address"
        },
        {
          "internalType": "uint256",
          "name": "",
          "type": "uint256"
        }
      ],
      "name": "ownedNfts",
      "outputs": [
        {
          "internalType": "uint256",
          "name": "",
          "type": "uint256"
        }
      ],
      "stateMutability": "view",
      "type": "function"
    },
    {
      "inputs": [
        {
          "internalType": "uint256",
          "name": "",
          "type": "uint256"
        },
        {
          "internalType": "uint256",
          "name": "",
          "type": "uint256"
        }
      ],
      "name": "previousOwners",
      "outputs": [
        {
          "internalType": "address",
          "name": "",
          "type": "address"
        }
      ],
      "stateMutability": "view",
      "type": "function"
    },
    {
      "inputs": [
        {
          "internalType": "uint256",
          "name": "_ticketId",
          "type": "uint256"
        },
        {
          "internalType": "uint256",
          "name": "_amount",
          "type": "uint256"
        }
      ],
      "name": "purchaseTicket",
      "outputs": [],
      "stateMutability": "payable",
      "type": "function"
    },
    {
      "inputs": [
        {
          "internalType": "address",
          "name": "from",
          "type": "address"
        },
        {
          "internalType": "address",
          "name": "to",
          "type": "address"
        },
        {
          "internalType": "uint256[]",
          "name": "ids",
          "type": "uint256[]"
        },
        {
          "internalType": "uint256[]",
          "name": "amounts",
          "type": "uint256[]"
        },
        {
          "internalType": "bytes",
          "name": "data",
          "type": "bytes"
        }
      ],
      "name": "safeBatchTransferFrom",
      "outputs": [],
      "stateMutability": "nonpayable",
      "type": "function"
    },
    {
      "inputs": [
        {
          "internalType": "address",
          "name": "from",
          "type": "address"
        },
        {
          "internalType": "address",
          "name": "to",
          "type": "address"
        },
        {
          "internalType": "uint256",
          "name": "id",
          "type": "uint256"
        },
        {
          "internalType": "uint256",
          "name": "amount",
          "type": "uint256"
        },
        {
          "internalType": "bytes",
          "name": "data",
          "type": "bytes"
        }
      ],
      "name": "safeTransferFrom",
      "outputs": [],
      "stateMutability": "nonpayable",
      "type": "function"
    },
    {
      "inputs": [
        {
          "internalType": "address",
          "name": "",
          "type": "address"
        }
      ],
      "name": "sellerBalances",
      "outputs": [
        {
          "internalType": "uint256",
          "name": "",
          "type": "uint256"
        }
      ],
      "stateMutability": "view",
      "type": "function"
    },
    {
      "inputs": [
        {
          "internalType": "address",
          "name": "operator",
          "type": "address"
        },
        {
          "internalType": "bool",
          "name": "approved",
          "type": "bool"
        }
      ],
      "name": "setApprovalForAll",
      "outputs": [],
      "stateMutability": "nonpayable",
      "type": "function"
    },
    {
      "inputs": [
        {
          "internalType": "bytes4",
          "name": "interfaceId",
          "type": "bytes4"
        }
      ],
      "name": "supportsInterface",
      "outputs": [
        {
          "internalType": "bool",
          "name": "",
          "type": "bool"
        }
      ],
      "stateMutability": "view",
      "type": "function"
    },
    {
      "inputs": [
        {
          "internalType": "uint256",
          "name": "",
          "type": "uint256"
        }
      ],
      "name": "ticketBuyer",
      "outputs": [
        {
          "internalType": "address",
          "name": "",
          "type": "address"
        }
      ],
      "stateMutability": "view",
      "type": "function"
    },
    {
      "inputs": [
        {
          "internalType": "uint256",
          "name": "",
          "type": "uint256"
        }
      ],
      "name": "ticketSeller",
      "outputs": [
        {
          "internalType": "address",
          "name": "",
          "type": "address"
        }
      ],
      "stateMutability": "view",
      "type": "function"
    },
    {
      "inputs": [],
      "name": "ticketsForSale",
      "outputs": [
        {
          "components": [
            {
              "internalType": "string",
              "name": "ticketTitle",
              "type": "string"
            },
            {
              "internalType": "string",
              "name": "eventDetails",
              "type": "string"
            },
            {
              "internalType": "uint256",
              "name": "price",
              "type": "uint256"
            },
            {
              "internalType": "uint256",
              "name": "date",
              "type": "uint256"
            },
            {
              "internalType": "uint256",
              "name": "ticketID",
              "type": "uint256"
            },
            {
              "internalType": "bool",
              "name": "soldOut",
              "type": "bool"
            }
          ],
          "internalType": "struct EventTicketContract.Ticket[]",
          "name": "",
          "type": "tuple[]"
        }
      ],
      "stateMutability": "view",
      "type": "function"
    },
    {
      "inputs": [],
      "name": "tokenAddress",
      "outputs": [
        {
          "internalType": "address",
          "name": "",
          "type": "address"
        }
      ],
      "stateMutability": "view",
      "type": "function"
    },
    {
      "inputs": [
        {
          "internalType": "uint256",
          "name": "",
          "type": "uint256"
        }
      ],
      "name": "uri",
      "outputs": [
        {
          "internalType": "string",
          "name": "",
          "type": "string"
        }
      ],
      "stateMutability": "view",
      "type": "function"
    },
    {
      "inputs": [],
      "name": "withdrawBalance",
      "outputs": [],
      "stateMutability": "nonpayable",
      "type": "function"
    }
  ],
  "bytecode": "0x60806040523480156200001157600080fd5b5060405162002f9738038062002f978339810160408190526200003491620000a4565b60408051808201909152601081526f115d995b9d151a58dad95d115513919560821b6020820152620000668162000092565b506001600355600580546001600160a01b0319166001600160a01b039290921691909117905562000247565b6002620000a082826200017b565b5050565b600060208284031215620000b757600080fd5b81516001600160a01b0381168114620000cf57600080fd5b9392505050565b634e487b7160e01b600052604160045260246000fd5b600181811c908216806200010157607f821691505b6020821081036200012257634e487b7160e01b600052602260045260246000fd5b50919050565b601f8211156200017657600081815260208120601f850160051c81016020861015620001515750805b601f850160051c820191505b8181101562000172578281556001016200015d565b5050505b505050565b81516001600160401b03811115620001975762000197620000d6565b620001af81620001a88454620000ec565b8462000128565b602080601f831160018114620001e75760008415620001ce5750858301515b600019600386901b1c1916600185901b17855562000172565b600085815260208120601f198616915b828110156200021857888601518255948401946001909101908401620001f7565b5085821015620002375787850151600019600388901b60f8161c191681555b5050505050600190811b01905550565b612d4080620002576000396000f3fe60806040526004361061011e5760003560e01c806385f723c8116100a0578063bdbbb0cb11610064578063bdbbb0cb14610369578063cdd4da831461037c578063e985e9c5146103b2578063ee355b1f146103fb578063f242432a1461041b57600080fd5b806385f723c8146102d25780639d76ea58146102f4578063a22cb46514610314578063a46057c814610334578063b54fb04a1461034957600080fd5b80634a16948f116100e75780634a16948f146101f55780634e1273f41461021557806352b32386146102425780635fd8c71014610290578063607eb4e4146102a557600080fd5b8062fdd58e1461012357806301ffc9a7146101565780630e89341c146101865780632eb2c2d6146101b35780633d9a3479146101d5575b600080fd5b34801561012f57600080fd5b5061014361013e366004612120565b61043b565b6040519081526020015b60405180910390f35b34801561016257600080fd5b50610176610171366004612163565b6104d4565b604051901515815260200161014d565b34801561019257600080fd5b506101a66101a1366004612187565b610524565b60405161014d91906121e6565b3480156101bf57600080fd5b506101d36101ce36600461234c565b6105b8565b005b3480156101e157600080fd5b506101436101f0366004612120565b610604565b34801561020157600080fd5b506101d36102103660046124a0565b610635565b34801561022157600080fd5b50610235610230366004612564565b610897565b60405161014d9190612669565b34801561024e57600080fd5b5061027861025d366004612187565b6008602052600090815260409020546001600160a01b031681565b6040516001600160a01b03909116815260200161014d565b34801561029c57600080fd5b506101d36109c0565b3480156102b157600080fd5b506101436102c036600461267c565b60096020526000908152604090205481565b3480156102de57600080fd5b506102e7610b8d565b60405161014d9190612697565b34801561030057600080fd5b50600554610278906001600160a01b031681565b34801561032057600080fd5b506101d361032f366004612756565b610e05565b34801561034057600080fd5b506102e7610e14565b34801561035557600080fd5b5061027861036436600461278d565b61105c565b6101d361037736600461278d565b611094565b34801561038857600080fd5b50610278610397366004612187565b6007602052600090815260409020546001600160a01b031681565b3480156103be57600080fd5b506101766103cd3660046127af565b6001600160a01b03918216600090815260016020908152604080832093909416825291909152205460ff1690565b34801561040757600080fd5b506101d3610416366004612187565b6114ba565b34801561042757600080fd5b506101d36104363660046127e2565b61183e565b60006001600160a01b0383166104ab5760405162461bcd60e51b815260206004820152602a60248201527f455243313135353a2061646472657373207a65726f206973206e6f742061207660448201526930b634b21037bbb732b960b11b60648201526084015b60405180910390fd5b506000818152602081815260408083206001600160a01b03861684529091529020545b92915050565b60006001600160e01b03198216636cdb3d1360e11b148061050557506001600160e01b031982166303a24d0760e21b145b806104ce57506301ffc9a760e01b6001600160e01b03198316146104ce565b60606002805461053390612846565b80601f016020809104026020016040519081016040528092919081815260200182805461055f90612846565b80156105ac5780601f10610581576101008083540402835291602001916105ac565b820191906000526020600020905b81548152906001019060200180831161058f57829003601f168201915b50505050509050919050565b6001600160a01b0385163314806105d457506105d485336103cd565b6105f05760405162461bcd60e51b81526004016104a29061287a565b6105fd8585858585611883565b5050505050565b600b602052816000526040600020818154811061062057600080fd5b90600052602060002001600091509150505481565b60005b835181101561088f576000848281518110610655576106556128c8565b6020026020010151116106b95760405162461bcd60e51b815260206004820152602660248201527f5469636b6574207175616e74697479206d75737420626520677265617465722060448201526507468616e20360d41b60648201526084016104a2565b60006106c460045490565b90506040518060c001604052808884815181106106e3576106e36128c8565b60200260200101518152602001878481518110610702576107026128c8565b60200260200101518152602001858481518110610721576107216128c8565b60200260200101518152602001848481518110610740576107406128c8565b602090810291909101810151825281810184905260006040928301819052848152600690915220815181906107759082612929565b506020820151600182019061078a9082612929565b5060408201518160020155606082015181600301556080820151816004015560a08201518160050160006101000a81548160ff02191690831515021790555090505061080033828785815181106107e3576107e36128c8565b602002602001015160405180602001604052806000815250611a58565b600081815260076020908152604080832080546001600160a01b031916339081179091558352600b8252822080546001810182559083529120018190558251839083908110610851576108516128c8565b602090810291909101810151336000908152600c90925260409091205561087c600480546001019055565b5080610887816129fe565b915050610638565b505050505050565b606081518351146108fc5760405162461bcd60e51b815260206004820152602960248201527f455243313135353a206163636f756e747320616e6420696473206c656e677468604482015268040dad2e6dac2e8c6d60bb1b60648201526084016104a2565b600083516001600160401b03811115610917576109176121f9565b604051908082528060200260200182016040528015610940578160200160208202803683370190505b50905060005b84518110156109b85761098b858281518110610964576109646128c8565b602002602001015185838151811061097e5761097e6128c8565b602002602001015161043b565b82828151811061099d5761099d6128c8565b60209081029190910101526109b1816129fe565b9050610946565b509392505050565b336000908152600c6020526040902054428110610a2f5760405162461bcd60e51b815260206004820152602760248201527f63616e2774207769746864726177206265666f7265206576656e7420657870696044820152663930b93a34b7b760c91b60648201526084016104a2565b3360009081526009602052604090205480610a855760405162461bcd60e51b81526020600482015260166024820152754e6f2062616c616e636520746f20776974686472617760501b60448201526064016104a2565b3360008181526009602052604080822091909155600554905163a9059cbb60e01b81526004810192909252602482018390526001600160a01b031690819063a9059cbb906044016020604051808303816000875af1158015610aeb573d6000803e3d6000fd5b505050506040513d601f19601f82011682018060405250810190610b0f9190612a17565b610b535760405162461bcd60e51b8152602060048201526015602482015274151bdad95b881d1c985b9cd9995c8819985a5b1959605a1b60448201526064016104a2565b60405182815233907fddc398b321237a8d40ac914388309c2f52a08c134e4dc4ce61e32f57cb7d80f19060200160405180910390a2505050565b336000908152600b602052604081208054606092906001600160401b03811115610bb957610bb96121f9565b604051908082528060200260200182016040528015610c2557816020015b610c126040518060c0016040528060608152602001606081526020016000815260200160008152602001600081526020016000151581525090565b815260200190600190039081610bd75790505b50905060005b8254811015610dfe576000838281548110610c4857610c486128c8565b906000526020600020015490506000600660008381526020019081526020016000209050806040518060c0016040529081600082018054610c8890612846565b80601f0160208091040260200160405190810160405280929190818152602001828054610cb490612846565b8015610d015780601f10610cd657610100808354040283529160200191610d01565b820191906000526020600020905b815481529060010190602001808311610ce457829003601f168201915b50505050508152602001600182018054610d1a90612846565b80601f0160208091040260200160405190810160405280929190818152602001828054610d4690612846565b8015610d935780601f10610d6857610100808354040283529160200191610d93565b820191906000526020600020905b815481529060010190602001808311610d7657829003601f168201915b505050918352505060028201546020820152600382015460408201526004820154606082015260059091015460ff1615156080909101528451859085908110610dde57610dde6128c8565b602002602001018190525050508080610df6906129fe565b915050610c2b565b5092915050565b610e10338383611b6c565b5050565b60606000610e2160045490565b6001600160401b03811115610e3857610e386121f9565b604051908082528060200260200182016040528015610ea457816020015b610e916040518060c0016040528060608152602001606081526020016000815260200160008152602001600081526020016000151581525090565b815260200190600190039081610e565790505b50905060005b6004548110156110565760008181526006602052604090819020815160c081019092528054909190829082908290610ee190612846565b80601f0160208091040260200160405190810160405280929190818152602001828054610f0d90612846565b8015610f5a5780601f10610f2f57610100808354040283529160200191610f5a565b820191906000526020600020905b815481529060010190602001808311610f3d57829003601f168201915b50505050508152602001600182018054610f7390612846565b80601f0160208091040260200160405190810160405280929190818152602001828054610f9f90612846565b8015610fec5780601f10610fc157610100808354040283529160200191610fec565b820191906000526020600020905b815481529060010190602001808311610fcf57829003601f168201915b505050918352505060028201546020820152600382015460408201526004820154606082015260059091015460ff1615156080909101528351849084908110611037576110376128c8565b602002602001018190525050808061104e906129fe565b915050610eaa565b50919050565b600a602052816000526040600020818154811061107857600080fd5b6000918252602090912001546001600160a01b03169150829050565b61109c611c4c565b600082815260076020908152604080832054600690925290912060055460038201546001600160a01b03938416939091169042106111185760405162461bcd60e51b8152602060048201526019602482015278115d995b9d081a185cc8185b1c9958591e48195e1c1a5c9959603a1b60448201526064016104a2565b81600201548410156111615760405162461bcd60e51b8152602060048201526012602482015271496e73756666696369656e742066756e647360701b60448201526064016104a2565b60028201546040516370a0823160e01b81523360048201526001600160a01b038316906370a0823190602401602060405180830381865afa1580156111aa573d6000803e3d6000fd5b505050506040513d601f19601f820116820180604052508101906111ce9190612a34565b101561121c5760405162461bcd60e51b815260206004820152601c60248201527f496e73756666696369656e7420746f6b656e7320746f207370656e640000000060448201526064016104a2565b6002820154604051636eb1769f60e11b81523360048201523060248201526001600160a01b0383169063dd62ed3e906044016020604051808303816000875af115801561126d573d6000803e3d6000fd5b505050506040513d601f19601f820116820180604052508101906112919190612a34565b10156112df5760405162461bcd60e51b815260206004820181905260248201527f417070726f766520636f6e747261637420746f207370656e6420746f6b656e7360448201526064016104a2565b60028201546040516323b872dd60e01b815233600482015230602482015260448101919091526001600160a01b038216906323b872dd906064016020604051808303816000875af1158015611338573d6000803e3d6000fd5b505050506040513d601f19601f8201168201806040525081019061135c9190612a17565b5061137a833387600160405180602001604052806000815250611ca5565b60058201805460ff1916600117905560028201546001600160a01b038416600090815260096020526040812080549091906113b6908490612a4d565b90915550506000858152600a602090815260408083208054600180820183559185528385200180546001600160a01b03199081166001600160a01b038a1617909155898552600884528285208054339216821790558452600b835290832080549182018155835291200185905561142d8386611dcf565b816002015484111561147857600282015433906108fc9061144e9087612a60565b6040518115909202916000818181858888f19350505050158015611476573d6000803e3d6000fd5b505b60405185815233907f0668f5b446eb814fe35b3206f43f14bd8567ba04ddaf7a3ee56516929ab22ccb9060200160405180910390a2505050610e106001600355565b60008181526008602052604090205481906001600160a01b031633146115345760405162461bcd60e51b815260206004820152602960248201527f4f6e6c79207469636b6574206f776e65722063616e20706572666f726d20746860448201526834b99030b1ba34b7b760b91b60648201526084016104a2565b6000828152600660205260409020600381015442106115915760405162461bcd60e51b8152602060048201526019602482015278115d995b9d081a185cc8185b1c9958591e48195e1c1a5c9959603a1b60448201526064016104a2565b6005546000848152600a6020526040812080546001600160a01b039093169290919082906115c190600190612a60565b815481106115d1576115d16128c8565b9060005260206000200160009054906101000a90046001600160a01b0316905061160e338288600160405180602001604052806000815250611ca5565b600284015460405163095ea7b360e01b815230600482015260248101919091526001600160a01b0384169063095ea7b3906044016020604051808303816000875af1158015611661573d6000803e3d6000fd5b505050506040513d601f19601f820116820180604052508101906116859190612a17565b5060028401546040516323b872dd60e01b815230600482015233602482015260448101919091526001600160a01b038416906323b872dd906064016020604051808303816000875af11580156116df573d6000803e3d6000fd5b505050506040513d601f19601f820116820180604052508101906117039190612a17565b50815460009061171590600190612a60565b90505b80156117a5578261172a600183612a60565b8154811061173a5761173a6128c8565b9060005260206000200160009054906101000a90046001600160a01b031683828154811061176a5761176a6128c8565b600091825260209091200180546001600160a01b0319166001600160a01b03929092169190911790558061179d81612a73565b915050611718565b50818054806117b6576117b6612a8a565b60008281526020808220830160001990810180546001600160a01b031916905590920190925560058601805460ff191690556001600160a01b038316808352600b825260408084208054600181018255908552838520018a905560028801549184526009909252908220805491929091611831908490612a60565b9091555050505050505050565b6001600160a01b03851633148061185a575061185a85336103cd565b6118765760405162461bcd60e51b81526004016104a29061287a565b6105fd8585858585611ca5565b81518351146118e55760405162461bcd60e51b815260206004820152602860248201527f455243313135353a2069647320616e6420616d6f756e7473206c656e677468206044820152670dad2e6dac2e8c6d60c31b60648201526084016104a2565b6001600160a01b03841661190b5760405162461bcd60e51b81526004016104a290612aa0565b3360005b84518110156119f257600085828151811061192c5761192c6128c8565b60200260200101519050600085838151811061194a5761194a6128c8565b602090810291909101810151600084815280835260408082206001600160a01b038e16835290935291909120549091508181101561199a5760405162461bcd60e51b81526004016104a290612ae5565b6000838152602081815260408083206001600160a01b038e8116855292528083208585039055908b168252812080548492906119d7908490612a4d565b92505081905550505050806119eb906129fe565b905061190f565b50846001600160a01b0316866001600160a01b0316826001600160a01b03167f4a39dc06d4c0dbc64b70af90fd698a233a518aa5d07e595d983b8c0526c8f7fb8787604051611a42929190612b2f565b60405180910390a461088f818787878787611ea3565b6001600160a01b038416611ab85760405162461bcd60e51b815260206004820152602160248201527f455243313135353a206d696e7420746f20746865207a65726f206164647265736044820152607360f81b60648201526084016104a2565b336000611ac485611ffe565b90506000611ad185611ffe565b90506000868152602081815260408083206001600160a01b038b16845290915281208054879290611b03908490612a4d565b909155505060408051878152602081018790526001600160a01b03808a1692600092918716917fc3d58168c5ae7397731d063d5bbf3d657854427343f4c083240f7aacaa2d0f62910160405180910390a4611b6383600089898989612049565b50505050505050565b816001600160a01b0316836001600160a01b031603611bdf5760405162461bcd60e51b815260206004820152602960248201527f455243313135353a2073657474696e6720617070726f76616c20737461747573604482015268103337b91039b2b63360b91b60648201526084016104a2565b6001600160a01b03838116600081815260016020908152604080832094871680845294825291829020805460ff191686151590811790915591519182527f17307eab39ab6107e8899845ad3d59bd9653f200f220920489ca2b5937696c31910160405180910390a3505050565b600260035403611c9e5760405162461bcd60e51b815260206004820152601f60248201527f5265656e7472616e637947756172643a207265656e7472616e742063616c6c0060448201526064016104a2565b6002600355565b6001600160a01b038416611ccb5760405162461bcd60e51b81526004016104a290612aa0565b336000611cd785611ffe565b90506000611ce485611ffe565b90506000868152602081815260408083206001600160a01b038c16845290915290205485811015611d275760405162461bcd60e51b81526004016104a290612ae5565b6000878152602081815260408083206001600160a01b038d8116855292528083208985039055908a16825281208054889290611d64908490612a4d565b909155505060408051888152602081018890526001600160a01b03808b16928c821692918816917fc3d58168c5ae7397731d063d5bbf3d657854427343f4c083240f7aacaa2d0f62910160405180910390a4611dc4848a8a8a8a8a612049565b505050505050505050565b6001600160a01b0382166000908152600b60205260408120905b8154811015611e9d5782828281548110611e0557611e056128c8565b906000526020600020015403611e8b5781548290611e2590600190612a60565b81548110611e3557611e356128c8565b9060005260206000200154828281548110611e5257611e526128c8565b906000526020600020018190555081805480611e7057611e70612a8a565b60019003818190600052602060002001600090559055611e9d565b80611e95816129fe565b915050611de9565b50505050565b6001600160a01b0384163b1561088f5760405163bc197c8160e01b81526001600160a01b0385169063bc197c8190611ee79089908990889088908890600401612b5d565b6020604051808303816000875af1925050508015611f22575060408051601f3d908101601f19168201909252611f1f91810190612bbb565b60015b611fce57611f2e612bd8565b806308c379a003611f675750611f42612bf4565b80611f4d5750611f69565b8060405162461bcd60e51b81526004016104a291906121e6565b505b60405162461bcd60e51b815260206004820152603460248201527f455243313135353a207472616e7366657220746f206e6f6e2d455243313135356044820152732932b1b2b4bb32b91034b6b83632b6b2b73a32b960611b60648201526084016104a2565b6001600160e01b0319811663bc197c8160e01b14611b635760405162461bcd60e51b81526004016104a290612c7d565b60408051600180825281830190925260609160009190602080830190803683370190505090508281600081518110612038576120386128c8565b602090810291909101015292915050565b6001600160a01b0384163b1561088f5760405163f23a6e6160e01b81526001600160a01b0385169063f23a6e619061208d9089908990889088908890600401612cc5565b6020604051808303816000875af19250505080156120c8575060408051601f3d908101601f191682019092526120c591810190612bbb565b60015b6120d457611f2e612bd8565b6001600160e01b0319811663f23a6e6160e01b14611b635760405162461bcd60e51b81526004016104a290612c7d565b80356001600160a01b038116811461211b57600080fd5b919050565b6000806040838503121561213357600080fd5b61213c83612104565b946020939093013593505050565b6001600160e01b03198116811461216057600080fd5b50565b60006020828403121561217557600080fd5b81356121808161214a565b9392505050565b60006020828403121561219957600080fd5b5035919050565b6000815180845260005b818110156121c6576020818501810151868301820152016121aa565b506000602082860101526020601f19601f83011685010191505092915050565b60208152600061218060208301846121a0565b634e487b7160e01b600052604160045260246000fd5b601f8201601f191681016001600160401b0381118282101715612234576122346121f9565b6040525050565b60006001600160401b03821115612254576122546121f9565b5060051b60200190565b600082601f83011261226f57600080fd5b8135602061227c8261223b565b604051612289828261220f565b83815260059390931b85018201928281019150868411156122a957600080fd5b8286015b848110156122c457803583529183019183016122ad565b509695505050505050565b60006001600160401b038311156122e8576122e86121f9565b6040516122ff601f8501601f19166020018261220f565b80915083815284848401111561231457600080fd5b83836020830137600060208583010152509392505050565b600082601f83011261233d57600080fd5b612180838335602085016122cf565b600080600080600060a0868803121561236457600080fd5b61236d86612104565b945061237b60208701612104565b935060408601356001600160401b038082111561239757600080fd5b6123a389838a0161225e565b945060608801359150808211156123b957600080fd5b6123c589838a0161225e565b935060808801359150808211156123db57600080fd5b506123e88882890161232c565b9150509295509295909350565b600082601f83011261240657600080fd5b813560206124138261223b565b60408051612421838261220f565b84815260059490941b860183019383810192508785111561244157600080fd5b8387015b858110156124945780356001600160401b038111156124645760008081fd5b8801603f81018a136124765760008081fd5b6124868a878301358684016122cf565b855250928401928401612445565b50979650505050505050565b600080600080600060a086880312156124b857600080fd5b85356001600160401b03808211156124cf57600080fd5b6124db89838a016123f5565b965060208801359150808211156124f157600080fd5b6124fd89838a016123f5565b9550604088013591508082111561251357600080fd5b61251f89838a0161225e565b9450606088013591508082111561253557600080fd5b61254189838a0161225e565b9350608088013591508082111561255757600080fd5b506123e88882890161225e565b6000806040838503121561257757600080fd5b82356001600160401b038082111561258e57600080fd5b818501915085601f8301126125a257600080fd5b813560206125af8261223b565b6040516125bc828261220f565b83815260059390931b85018201928281019150898411156125dc57600080fd5b948201945b83861015612601576125f286612104565b825294820194908201906125e1565b9650508601359250508082111561261757600080fd5b506126248582860161225e565b9150509250929050565b600081518084526020808501945080840160005b8381101561265e57815187529582019590820190600101612642565b509495945050505050565b602081526000612180602083018461262e565b60006020828403121561268e57600080fd5b61218082612104565b60006020808301818452808551808352604092508286019150828160051b87010184880160005b8381101561273a57603f19898403018552815160c081518186526126e4828701826121a0565b915050888201518582038a8701526126fc82826121a0565b838a0151878b0152606080850151908801526080808501519088015260a09384015115159390960192909252505093860193908601906001016126be565b509098975050505050505050565b801515811461216057600080fd5b6000806040838503121561276957600080fd5b61277283612104565b9150602083013561278281612748565b809150509250929050565b600080604083850312156127a057600080fd5b50508035926020909101359150565b600080604083850312156127c257600080fd5b6127cb83612104565b91506127d960208401612104565b90509250929050565b600080600080600060a086880312156127fa57600080fd5b61280386612104565b945061281160208701612104565b9350604086013592506060860135915060808601356001600160401b0381111561283a57600080fd5b6123e88882890161232c565b600181811c9082168061285a57607f821691505b60208210810361105657634e487b7160e01b600052602260045260246000fd5b6020808252602e908201527f455243313135353a2063616c6c6572206973206e6f7420746f6b656e206f776e60408201526d195c881bdc88185c1c1c9bdd995960921b606082015260800190565b634e487b7160e01b600052603260045260246000fd5b601f82111561292457600081815260208120601f850160051c810160208610156129055750805b601f850160051c820191505b8181101561088f57828155600101612911565b505050565b81516001600160401b03811115612942576129426121f9565b612956816129508454612846565b846128de565b602080601f83116001811461298b57600084156129735750858301515b600019600386901b1c1916600185901b17855561088f565b600085815260208120601f198616915b828110156129ba5788860151825594840194600190910190840161299b565b50858210156129d85787850151600019600388901b60f8161c191681555b5050505050600190811b01905550565b634e487b7160e01b600052601160045260246000fd5b600060018201612a1057612a106129e8565b5060010190565b600060208284031215612a2957600080fd5b815161218081612748565b600060208284031215612a4657600080fd5b5051919050565b808201808211156104ce576104ce6129e8565b818103818111156104ce576104ce6129e8565b600081612a8257612a826129e8565b506000190190565b634e487b7160e01b600052603160045260246000fd5b60208082526025908201527f455243313135353a207472616e7366657220746f20746865207a65726f206164604082015264647265737360d81b606082015260800190565b6020808252602a908201527f455243313135353a20696e73756666696369656e742062616c616e636520666f60408201526939103a3930b739b332b960b11b606082015260800190565b604081526000612b42604083018561262e565b8281036020840152612b54818561262e565b95945050505050565b6001600160a01b0386811682528516602082015260a060408201819052600090612b899083018661262e565b8281036060840152612b9b818661262e565b90508281036080840152612baf81856121a0565b98975050505050505050565b600060208284031215612bcd57600080fd5b81516121808161214a565b600060033d1115612bf15760046000803e5060005160e01c5b90565b600060443d1015612c025790565b6040516003193d81016004833e81513d6001600160401b038160248401118184111715612c3157505050505090565b8285019150815181811115612c495750505050505090565b843d8701016020828501011115612c635750505050505090565b612c726020828601018761220f565b509095945050505050565b60208082526028908201527f455243313135353a204552433131353552656365697665722072656a656374656040820152676420746f6b656e7360c01b606082015260800190565b6001600160a01b03868116825285166020820152604081018490526060810183905260a060808201819052600090612cff908301846121a0565b97965050505050505056fea264697066735822122041eb92cc50b231b7896f5b56768faa06d2e8acf6de655c82340d44128270c77364736f6c63430008130033",
  "linkReferences": {},
  "deployedLinkReferences": {}
}